:020000040800F2
:10000000004001201915000801140008031400081D
:100010000514000807140008091400080000000077
:100020000000000000000000000000000B140008A9
:100030000D140008000000000F140008111400083F
:1000400061150008611500086115000861150008B8
:1000500061150008611500086115000861150008A8
:100060006115000861150008611500086115000898
:100070006115000861150008611500086115000888
:100080006115000861150008611500086115000878
:100090006115000861150008611500086115000868
:1000A0006115000861150008611500086115000858
:1000B0006115000861150008611500086115000848
:1000C0006115000861150008611500086115000838
:1000D0006115000861150008151400086115000875
:1000E0006115000861150008611500086115000818
:1000F0006115000800000000611500086115000886
:1001000061150008611500086115000861150008F7
:100110006115000861150008611500080000000065
:100120006115000800000000000000000000000051
:0C01300000000000000000005FF808F173
:10013C0010B5054C237833B9044B13B10448AFF315
:10014C0000800123237010BD0C0000200000000073
:10015C00BC15000808B5034B1BB103490348AFF3AA
:10016C00008008BD0000000010000020BC15000835
:10017C00002210B5084C226009B9012010BD8AB2CA
:10018C000146064800F02EFF2368022BFCD110B16B
:10019C000128F2D0184610BD28000020380000209D
:1001AC0000232DE9F74F214D136080468946924676
:1001BC00014601221E482B6000F033FF2C68012CF5
:1001CC000DD1A34626461A4FCB450AD3012E0CBFA0
:1001DC0001200220CAF8004003B0BDE8F08F00BF38
:1001EC00ECE70023012208EB0B0138462B6000F0F2
:1001FC0018FF00F079F90246801A02280ED82968F7
:10020C00012906D12A680BF1010B012A08BF013420
:10021C00DAE7019200F068F9019AEDE7384601F04F
:10022C000FF82E68032EFCD1CB46EBE728000020FC
:10023C003800002008B52021034800F0C2FA022241
:10024C00024B1A6008BD00BF0000024028000020CD
:10025C000122014B1A607047280000200322014B39
:10026C001A6070472800002030B502464FF6FF7325
:10027C004AF20105141AA14201DC184630BD12F8ED
:10028C00014B6340082413F0010F4FEA53039BB258
:10029C0018BF6B40013CF6D1ECE70000F8B5044602
:1002AC000E46023989B215461F46FFF7DDFF26447C
:1002BC0016F8012C16F8023C43EA0223984225D189
:1002CC00144B22781B789A4222D16178032911D0E1
:1002DC00062909D0102913D001236B700223803911
:1002EC0029703B800020F8BD3A462946601C00F07E
:1002FC0033F8F7E73A462946601C00F04FF8F1E76F
:10030C003A462946601C00F07BF8EBE70420F8BD68
:10031C000320F8BD2C000020F8B50D4614461F46EE
:10032C000C4B01381B781370131B9D420DDC6E1C9B
:10033C00B6B231462046FFF797FFA0553444000A69
:10034C00607003353D800020F8BD10F8013F02F8C5
:10035C00013FE9E72C00002030B54378847844EA6B
:10036C000324012C11D8C57803790B4843EA0523E3
:10037C0020F8143006208C7008701C0A0B710020B9
:10038C0005234870CC70138030BD86230B7002237C
:10039C0006204B70138030BD2E00002030B5437802
:1003AC008478C57844EA0324037943EA0523E018EA
:1003BC0080B202281AD8032008705800487083B104
:1003CC000E48012B30F814504FEA15258D7030F87B
:1003DC001450CD7005D0013430F81400040A0C719F
:1003EC00487101335B001380002030BD83230B70F8
:1003FC00022306204B70138030BD00BF2E0000205E
:10040C00F0B543788478C57844EA0324037943EA49
:10041C000523E518ADB2022D1BD847796FB190F8C2
:10042C0006E0C5790E4E022F45EA0E253580C1BF78
:10043C00057A407A40EA0520708010200870200A66
:10044C0048700B71180A0523C8708C70002013803B
:10045C00F0BD90230B70022306204B701380F0BD6F
:10046C002E00002038B50F4B0546186808B901203E
:10047C0038BD4FF47A73B3FBF0F30B4A1068B0FB42
:10048C00F3F000F08BF804460028F0D10F2DEED8D5
:10049C00024629464FF0FF3000F03EF8034B204651
:1004AC001D6038BD00000020080000200400002062
:1004BC0010B5032000F01EF80020FFF7D3FF044610
:1004CC0018B900F075FF204610BD0124FBE70000B1
:1004DC00034A0449136809680B441360704700BF52
:1004EC003400002000000020014B1868704700BF4A
:1004FC0034000020074A0002D36800F4E06023F4C3
:10050C00E0631B041B0C43F0BF6343F40033034351
:10051C00D360704700ED00E0174B30B5DC68C4F3D6
:10052C000224C4F10703251D042B28BF0423062D28
:10053C004FF0010598BF002405FA03F303F1FF33D4
:10054C0088BF033C1940A14005FA04F4013C224049
:10055C00002842EA01024FEA0212A9BF00F16040F2
:10056C00064BD2B200F56140BBBF00F00F00D2B217
:10057C0080F800231A5430BD00ED00E014ED00E0CB
:10058C00002808DB0123420900F01F0003FA00F0E9
:10059C00014B43F82200704700E100E00138B0F154
:1005AC00807F0AD2F021064B064A586082F823104D
:1005BC000020072298601A6070470120704700BF26
:1005CC0010E000E000ED00E090F8212010B5022AC8
:1005DC0003D004228263012010BD0268C46B116831
:1005EC00436B21F00E011160116821F001011160C3
:1005FC000121026C02F01C0201FA02F2626000247A
:10060C0080F8211080F8204013B19847204610BD87
:10061C00184610BD00232DE9F74FD1F80080DFF804
:10062C009491624A38FA03F402D103B0BDE8F08F1A
:10063C004FF0010E0EFA03FE18EA0E0600F0A88029
:10064C004C6824F01007022F16D14FF00F0C4FEA14
:10065C00D30A00EB8A0A03F0070BDAF820504FEAB2
:10066C008B0B0CFA0BFC25EA0C0C0D6905FA0BF53F
:10067C0045EA0C05CAF8205003254FEA430A05FA4F
:10068C000AF5ED43D0F800B004F0030C0BEA050BAF
:10069C000CFA0AFC013F4CEA0B0C012FC0F800C00D
:1006AC0011D8876807EA050BCF6807FA0AFC4CEAF1
:1006BC000B078760476827EA0E0EC4F300179F40AC
:1006CC0047EA0E074760C7683D408F6807FA0AF78C
:1006DC003D43C560E5005BD54FF00F0CD9F82050B9
:1006EC0023F0030745F00105C9F82050D9F8205034
:1006FC0007F1804705F00105019507F5803703F0F8
:10070C00030E019D4FEA8E0ED7F808A00CFA0EF5D9
:10071C002AEA050C264DA8423CD005F58065A84276
:10072C003AD005F58065A84238D005F58065A84219
:10073C0036D005F58065A84234D005F58065A84211
:10074C0032D005F58065A84214BF0725062505FAA9
:10075C000EF545EA0C05BD60F743156814F4803FAF
:10076C000CBF3D4035431560556814F4003F0CBF79
:10077C003D4035435560956814F4801F0CBF3D40D7
:10078C0035439560D568A40254BF3D403543D560D0
:10079C00013347E70025DAE70125D8E70225D6E73C
:1007AC000325D4E70425D2E70525D0E70004014052
:1007BC0000000240003802400AB181617047090410
:1007CC00FBE743690B4218BF0904816170470000C5
:1007DC001C4B82B09A6812F0F00F0CD000221A4910
:1007EC000B6823F0010313430B60086800F0010051
:1007FC00504002B070475A6A144912F0805F0FD013
:10080C000A6802F4C052B2F5C05FE7D1B0F5404FB0
:10081C00E4D10D4A136843F0040313600122DEE7B0
:10082C005A6A42F080525A625A6A02F0805201921D
:10083C00019A0A68596A02F4C05221F08051596237
:10084C00E1E700BF00380240003C0240007000406D
:10085C002DE9F743044608B9012077E0A04B026864
:10086C009E689F68D00706F00C0607F480374BD4BF
:10087C002368990700F192802368D80636D5002E9C
:10088C0040F0DC80964D2B68990502D5A369002BAE
:10089C00E2D06B68206A03F46043984240F2BC805B
:1008AC00FFF796FF0028D7D16B68226A23F46043C8
:1008BC0013436B606B68E26923F07F4343EA026386
:1008CC006B60874B9968236A5B0B5A1C4FF400438F
:1008DC009340C1F3031283498A5CD340824A13606C
:1008EC00824B1868FFF7BEFD00282FD1236818072C
:1008FC0000F1D3802368590700F10081606A002859
:10090C0040F06A81002021E0082E02D00C2E07D185
:10091C0037B11B689A03ABD56368002BA8D19BE752
:10092C0063686F4D012B14D12B6843F480332B601B
:10093C00FFF7DAFD80466A4D2B689B0398D4FFF7CE
:10094C00D3FDA0EB08006428F6D9032003B0BDE862
:10095C00F083ABB92B6823F480332B602B6823F422
:10096C0080232B60FFF7C0FD80462B6898037FF532
:10097C007FAFFFF7B9FDA0EB08006428F5D9E4E7D9
:10098C00052B2B6803D143F480232B60CCE723F495
:10099C0080332B602B6823F48023C8E7042E02D00D
:1009AC000C2E10D17FB94E4B1A68910703D5E26813
:1009BC00012A7FF451AF5A68216922F4F85242EAB5
:1009CC0001225A6058E7E268494BB2B101221A6021
:1009DC00FFF78AFD0746424D2B689A0707D56B68CF
:1009EC00226923F4F85343EA02236B6044E7FFF7D0
:1009FC007BFDC01B0228EFD9A7E71A60FFF774FD37
:100A0C000746374D2B689B077FF536AFFFF76CFD1C
:100A1C00C01B0228F6D998E76B6823F460430343A4
:100A2C006B606B68E26923F07F4343EA02636B609F
:100A3C00FFF7CEFE00283FF444AF0DE7A2692D4B23
:100A4C00E2B101221A60FFF74FFD0746244D2B68D7
:100A5C009A050DD56B68226A23F4604313436B60CF
:100A6C006B68E26923F07F4343EA02636B603DE706
:100A7C00FFF73AFDC01B0228E9D966E71A60FFF7B9
:100A8C0033FD0746164D2B689B057FF52FAFFFF7FF
:100A9C002BFDC01B0228F6D957E76269164B7AB1B9
:100AAC0001221A60FFF720FD07460D4D6B6B9A076C
:100ABC003FF520AFFFF718FDC01B0228F6D944E71D
:100ACC001A60FFF711FD0746054D6B6B9B077FF511
:100ADC0011AFFFF709FDC01B0228F6D935E700BF9F
:100AEC0000380240D4150008080000200400002043
:100AFC00000047422000474280064742604B5A6A3A
:100B0C00D00029D401275A6A42F080525A625B6A9B
:100B1C0003F080530193019B5A4D2B68D9051DD5C9
:100B2C00A368574D012B2AD16B6B43F480736B6315
:100B3C00FFF7DAFC41F288358146DFF84481D8F8BA
:100B4C0034309B0541D5002F3FF4D8AE4C4A536A44
:100B5C0023F080535362D1E60027DDE72B6843F482
:100B6C0080732B60FFF7C0FC80462B68DA05D7D466
:100B7C00FFF7BAFCA0EB08006428F6D9E5E6B3B998
:100B8C006B6B41F2883923F480736B636B6B23F4CA
:100B9C0080636B63FFF7A8FC80466B6B9805D2D51E
:100BAC00FFF7A2FCA0EB08004845F6D9CDE6052BD3
:100BBC006B6B03D143F480636B63B5E723F48073F1
:100BCC006B636B6B23F48063B1E7FFF78DFCA0EBD9
:100BDC000900A842B3D9B8E60C2E39D000232A4D0F
:100BEC0002282B6026D1FFF77FFC0746244E336882
:100BFC00990119D4A36AE16AB2680B4322F47D020D
:100C0C001343226B1E4C1343B36001232B60FFF77D
:100C1C006BFC054623689A013FF574AEFFF764FC44
:100C2C00401B0228F6D990E6FFF75EFCC01B022899
:100C3C00DDD98AE6FFF758FC0546114C23689B0169
:100C4C007FF560AEFFF750FC401B0228F6D97CE61E
:100C5C0001283FF47BAE0A4B9868A36A00F48032FB
:100C6C009A427FF4F9ADE26A00F4701393427FF478
:100C7C00F3AD236B00F44000C01A18BF012065E6E9
:100C8C00003802400070004060004742124A9368EE
:100C9C0003F00C01082905D00C2905D0042913D127
:100CAC000E4870470E4870470E48C3F38341415CB1
:100CBC00C3F3815093680130DB034CBF084B074BE7
:100CCC004B43B3FBF0F070475068C0F34230431C09
:100CDC004FF4004098407047003802400024F40064
:100CEC0000366E01EC1500082DE9F0410D46044666
:100CFC0010B90120BDE8F081574B1A6802F00102CF
:100D0C008A422AD32268960738D4D0073ED4524B55
:100D1C001A6802F001029542C0F08D8022685107DA
:100D2C0000F19280130707D54C4A2169936823F48C
:100D3C00605343EAC1039360FFF7A8FFBDE8F0419D
:100D4C00464B474A9B68C3F30313D35CD840454BCF
:100D5C001860454B1868FFF785BB012902BF1A685C
:100D6C0042F004021A601A6822F001020A431A6067
:100D7C001B6803F001039942BBD1C3E73749A06854
:100D8C008B6823F0F00303438B60BEE76168334B41
:100D9C0002291A681DD112F4003FAAD09A682F4F6D
:100DAC0022F003020A439A60FFF79EFB6368064633
:100DBC00022B41F2883819D1BB6803F00C03082BC5
:100DCC00A5D0FFF791FB801B4045F5D90320BDE86A
:100DDC00F081032902D112F0007FDEE7012902D154
:100DEC0012F0020FD9E712F4007FD6E7032B0AD1D9
:100DFC00BB6803F00C030C2B89D0FFF775FB801B31
:100E0C004045F5D9E2E7012B10D1BB6803F00C0388
:100E1C00042B3FF47CAFFFF767FB801B4045F4D9F4
:100E2C00D4E7FFF761FB801B4045CFD8BB6813F0BC
:100E3C000C0FF6D16BE71A6822F001021A601B68DE
:100E4C00DA073FF556AF69E70449E0688B6823F48D
:100E5C00E06303438B6065E7003C024000380240CE
:100E6C00D41500080800002004000020044B054A9B
:100E7C009B68C3F30223D35C034A1068D8407047C5
:100E8C0000380240E415000808000020044B054A15
:100E9C009B68C3F3C223D35C034A1068D8407047E5
:100EAC0000380240E4150008080000200368DA68E6
:100EBC0022F49072DA605A6922F001025A612023FE
:100ECC0080F83A307047000038B505460268C168B2
:100EDC0013692C6923F440530B431361AB68D1683D
:100EEC0023436C69C069234321F4164121F00C01A2
:100EFC0003430B43D3605369A96923F440730B4339
:100F0C00B0F5004F53611F4B21D19A424FF0190499
:100F1C001AD1FFF7BBFF60436C6829686400B0FB13
:100F2C00F4F06424B0FBF4F504FB1503DB0032335E
:100F3C00B3FBF4F303F007025B0002EB051203F4BE
:100F4C00F87313448B6038BDFFF790FFE3E79A42C8
:100F5C004FF0190413D1FFF799FF60436C686422BA
:100F6C00A400B0FBF4F0B0FBF2F402FB14031B0181
:100F7C003233B3FBF2F3296803EB0413E2E7FFF718
:100F8C0075FFEAE70038014010B5044640B390F80D
:100F9C00393003F0FF021BB980F8382000F07CFADE
:100FAC002423226884F83930D368204623F4005374
:100FBC00D360FFF789FF236800201A6922F490425E
:100FCC001A615A6922F02A025A61DA6842F4005214
:100FDC00DA602023E06384F8393084F83A3010BDAD
:100FEC00012010BD90F83930202B18D1A9B1A2B135
:100FFC0090F83830012B12D0C28482840023212235
:10100C0001620168C36380F83920CA6880F83830FF
:10101C0042F08002CA6018467047012070470220D7
:10102C00704790F83A30202B20D1E9B1E2B190F81A
:10103C003830012B1AD0C285828500232222C3634B
:10104C0080F83A2002688162D16880F8383041F427
:10105C008071D1605169184641F001015161D1682C
:10106C0041F02001D1607047012070470220704789
:10107C0090F83A3010B5222B36D183680169B3F55C
:10108C00805F0268836A23D15268E9B9C2F308020F
:10109C0023F8022B8362C48D013CA4B2C4858CB9A5
:1010AC000368DA6822F02002DA60DA6822F48072CF
:1010BC00DA605A6922F001025A61202380F83A3032
:1010CC00FFF7C6F8002010BDD2B223F8012BE1E7E0
:1010DC0021B9591C526881621A70DCE75268591C9C
:1010EC00816202F07F02F7E7022010BD704700001A
:1010FC00036870B51A6804461607D9685D6907D18C
:10110C0096065AD58D0658D5BDE87040FFF7B0BF8E
:10111C0015F0010502D111F4907F4ED0D30705D5FF
:10112C00CE0542BFE36B43F00103E363500704D5E4
:10113C001DB1E36B43F00203E363930704D51DB1C8
:10114C00E36B43F00403E363160704D51DB1E36BB3
:10115C0043F00803E363E36B002B66D0950604D5DC
:10116C00880602D52046FFF783FF236820465D6979
:10117C00E26B110702D415F040051AD0FFF796FE6A
:10118C0023685A69520610D55A69606B22F04002E6
:10119C005A6150B1254B4363FFF716FA002844D02F
:1011AC00606BBDE87040436B18472046FFF79EFF0D
:1011BC0070BDFFF79BFFE56370BD160627D50D06C6
:1011CC0025D594F83920212A2FD1A268B2F5805F59
:1011DC00226A17D11188C1F308015960216979B9C4
:1011EC0002322262E28C013A92B2E284EAB9DA6803
:1011FC0022F08002DA60DA6842F04002DA6070BDF8
:10120C000132EEE7511C216212785A60EAE750066F
:10121C000BD54A0609D5DA68204622F04002DA607E
:10122C00202384F83930FFF705F870BD3D12000813
:10123C0008B50023406AC385C384FFF757FF08BD78
:10124C00036810B5DA68044622F49072DA605A69C1
:10125C0022F001025A615A6912F0400217D05A6901
:10126C0022F040025A61436B53B10A4A18465A6342
:10127C00FFF7AAF910B1606B436B9847002010BDC3
:10128C00C385202384F83A30FEF7E8FFF6E7C285E1
:10129C00F7E700BFA512000808B50023406AC38514
:1012AC00202380F83A30FEF7D9FF08BD10B586B080
:1012BC001422002101A800F073F90E4B0E4CDA69D0
:1012CC00204642F00102DA61DB69002203F00103DF
:1012DC0000932021009BFFF76FFA20230193012339
:1012EC000293002301A9204603930493FFF792F97C
:1012FC0006B010BD003802400000024030B593B07B
:10130C003422002105A800F04BF900211422684674
:10131C0000F046F90E4A00241368012523F4C0534B
:10132C0043F40063136002230593102305A809936B
:10133C0008950E94FFF78CFA0F23214668468DE82A
:10134C002800029403940494FFF7CEFC13B030BD34
:10135C000070004010B5002494B00194ADF800402A
:10136C00ADF80240FFF7A4F8FFF7C8FFFFF79EFFA8
:10137C0000F074F801AA102102A80194FEF710FFE6
:10138C006B4607AABDF8041002A8FEF787FF0328D6
:10139C00F0D0BDF800100DF102030CAA07A8FEF75F
:1013AC00BBFFBDF802100CA8FEF7E2FEE2E77047A7
:1013BC000F4B84B05A6A42F000425A625A6A02F0E9
:1013CC0000420192019A1A6A42F001021A621A6AE8
:1013DC0002F001020292029A5A6A42F080525A6258
:1013EC005B6A03F080530393039B04B0704700BF08
:1013FC00003802407047FEE7FEE7FEE7FEE7704765
:10140C0070477047FFF764B80148FFF771BE00BF23
:10141C00380000200E4B1A6842F480721A609968EA
:10142C000C4A0A409A601A6822F0885222F0011283
:10143C001A601A6822F480221A609A6822F47D02DB
:10144C009A600022DA604FF00062034B9A6070479A
:10145C00003802400CC0FF8800ED00E008B54FF4E6
:10146C00805C4FF496430A480A4A80E80C104FF40B
:10147C008062002302610C22C36042618361C361FC
:10148C00FFF782FD18B1BDE80840FFF790BF08BD1B
:10149C00380000200044004010B5044688B01422E7
:1014AC00002103A800F07CF82268164B9A4227D141
:1014BC0003F5FA335A6A03A942F400325A625A6AA3
:1014CC00114802F400320192019ADA6942F00102E9
:1014DC00DA61DB6903F001030293029B0C23039393
:1014EC00022304930323069307230793FFF792F831
:1014FC00002226201146FFF70FF82620FFF740F8B0
:10150C0008B010BD0044004000000240002103E080
:10151C000B4B5B58435004310A480B4B42189A4210
:10152C00F6D30A4A02E0002342F8043B084B9A42E5
:10153C00F9D3FFF76FFF00F00FF8FFF70BFF7047C1
:10154C0000160008000000200C0000200C000020F9
:10155C0078000020FEE7000070B500250C4E0D4C05
:10156C00A41BA410A54209D100F022F800250A4EB4
:10157C000A4CA41BA410A54205D170BD56F8253009
:10158C0098470135EEE756F8253098470135F2E7D4
:10159C00F8150008F8150008F8150008FC150008E7
:1015AC0003460244934200D1704703F8011BF9E74C
:1015BC00F8B500BFF8BC08BC9E467047F8B500BF34
:0815CC00F8BC08BC9E46704704
:1015D40000000000000000000102030406070809DF
:1015E4000000000001020304030406080C10182084
:0415F40030000000C3
:0415F8006101000885
:0415FC003D010008A5
:0C160000010000001000000068FF1F0047
:0400000508001519C1
:00000001FF
